{
  "address": "0x70ea858706db44c29553917bf0d5df96964d835b",
  "abi": [
    {
      "inputs": [],
      "name": "deletePost__InvalidPostUid",
      "type": "error"
    },
    {
      "inputs": [],
      "name": "deletePost__SenderNotPoster",
      "type": "error"
    },
    {
      "anonymous": false,
      "inputs": [
        {
          "indexed": true,
          "internalType": "address",
          "name": "users",
          "type": "address"
        },
        {
          "indexed": false,
          "internalType": "uint256",
          "name": "postId",
          "type": "uint256"
        }
      ],
      "name": "DeletePost",
      "type": "event"
    },
    {
      "anonymous": false,
      "inputs": [
        {
          "indexed": true,
          "internalType": "address",
          "name": "users",
          "type": "address"
        },
        {
          "indexed": false,
          "internalType": "string",
          "name": "ipfsHash",
          "type": "string"
        },
        {
          "indexed": false,
          "internalType": "string",
          "name": "text",
          "type": "string"
        },
        {
          "indexed": false,
          "internalType": "uint256",
          "name": "postId",
          "type": "uint256"
        }
      ],
      "name": "NewPost",
      "type": "event"
    },
    {
      "inputs": [
        {
          "internalType": "string",
          "name": "_text",
          "type": "string"
        },
        {
          "internalType": "string",
          "name": "_ipfsHash",
          "type": "string"
        }
      ],
      "name": "createPost",
      "outputs": [],
      "stateMutability": "nonpayable",
      "type": "function"
    },
    {
      "inputs": [
        {
          "internalType": "uint256",
          "name": "_postUid",
          "type": "uint256"
        }
      ],
      "name": "deletePost",
      "outputs": [],
      "stateMutability": "nonpayable",
      "type": "function"
    },
    {
      "inputs": [
        {
          "internalType": "uint256",
          "name": "_postUid",
          "type": "uint256"
        }
      ],
      "name": "getIpfsHash",
      "outputs": [
        {
          "internalType": "string",
          "name": "",
          "type": "string"
        }
      ],
      "stateMutability": "view",
      "type": "function"
    },
    {
      "inputs": [],
      "name": "getNumberOfPosts",
      "outputs": [
        {
          "internalType": "uint256",
          "name": "",
          "type": "uint256"
        }
      ],
      "stateMutability": "view",
      "type": "function"
    },
    {
      "inputs": [
        {
          "internalType": "uint256",
          "name": "_postUid",
          "type": "uint256"
        }
      ],
      "name": "getPost",
      "outputs": [
        {
          "components": [
            {
              "internalType": "address",
              "name": "User",
              "type": "address"
            },
            {
              "internalType": "uint256",
              "name": "postUid",
              "type": "uint256"
            },
            {
              "internalType": "string",
              "name": "text",
              "type": "string"
            },
            {
              "internalType": "string",
              "name": "ipfsHash",
              "type": "string"
            }
          ],
          "internalType": "struct SocialMedia.Post",
          "name": "",
          "type": "tuple"
        }
      ],
      "stateMutability": "view",
      "type": "function"
    },
    {
      "inputs": [
        {
          "internalType": "uint256",
          "name": "_postUid",
          "type": "uint256"
        }
      ],
      "name": "getPoster",
      "outputs": [
        {
          "internalType": "address",
          "name": "",
          "type": "address"
        }
      ],
      "stateMutability": "view",
      "type": "function"
    },
    {
      "inputs": [],
      "name": "getTotalPost",
      "outputs": [
        {
          "internalType": "uint256",
          "name": "",
          "type": "uint256"
        }
      ],
      "stateMutability": "view",
      "type": "function"
    }
  ],
  "transactionHash": "0x5bcb5e4de34900c6f83244d70403dbf7a0024bae760358f2515005b7c6c78692",
  "args": [],
  "numDeployments": 3,
  "solcInputHash": "e49ef2a1208e58b2d63de92bfbd7f845",
  "bytecode": "0x608060405234801561001057600080fd5b50610f30806100206000396000f3fe608060405234801561001057600080fd5b506004361061007d5760003560e01c8063392338f51161005b578063392338f5146100ec57806340731c24146101085780634e07784214610138578063d450fbc9146101565761007d565b806307e6341214610082578063094cd5ee146100b257806337bbcaa0146100ce575b600080fd5b61009c600480360381019061009791906109a3565b610186565b6040516100a99190610a11565b60405180910390f35b6100cc60048036038101906100c791906109a3565b610265565b005b6100d661046c565b6040516100e39190610a3b565b60405180910390f35b61010660048036038101906101019190610b9c565b610476565b005b610122600480360381019061011d91906109a3565b6105d7565b60405161012f9190610d24565b60405180910390f35b610140610787565b60405161014d9190610a3b565b60405180910390f35b610170600480360381019061016b91906109a3565b610791565b60405161017d9190610d90565b60405180910390f35b600081600073ffffffffffffffffffffffffffffffffffffffff1660008083815260200190815260200160002060000160009054906101000a900473ffffffffffffffffffffffffffffffffffffffff1673ffffffffffffffffffffffffffffffffffffffff161415610225576040517f9274ceb000000000000000000000000000000000000000000000000000000000815260040160405180910390fd5b600080600154815260200190815260200160002060000160009054906101000a900473ffffffffffffffffffffffffffffffffffffffff16915050919050565b80600073ffffffffffffffffffffffffffffffffffffffff1660008083815260200190815260200160002060000160009054906101000a900473ffffffffffffffffffffffffffffffffffffffff1673ffffffffffffffffffffffffffffffffffffffff161415610302576040517f9274ceb000000000000000000000000000000000000000000000000000000000815260040160405180910390fd5b813373ffffffffffffffffffffffffffffffffffffffff1660008083815260200190815260200160002060000160009054906101000a900473ffffffffffffffffffffffffffffffffffffffff1673ffffffffffffffffffffffffffffffffffffffff161461039d576040517f6650e5a100000000000000000000000000000000000000000000000000000000815260040160405180910390fd5b600080848152602001908152602001600020600080820160006101000a81549073ffffffffffffffffffffffffffffffffffffffff021916905560018201600090556002820160006103ef9190610838565b6003820160006103ff9190610838565b50506002600081548092919061041490610de1565b91905055503373ffffffffffffffffffffffffffffffffffffffff167f5193593dd2679e162412e51b2c2e7bc43c611040f57ad8cfc10f209121aaa4048460405161045f9190610a3b565b60405180910390a2505050565b6000600254905090565b60016000815461048590610e0b565b9190508190555060405180608001604052803373ffffffffffffffffffffffffffffffffffffffff168152602001600154815260200183815260200182815250600080600154815260200190815260200160002060008201518160000160006101000a81548173ffffffffffffffffffffffffffffffffffffffff021916908373ffffffffffffffffffffffffffffffffffffffff160217905550602082015181600101556040820151816002019080519060200190610546929190610878565b506060820151816003019080519060200190610563929190610878565b509050506002600081548092919061057a90610e0b565b91905055503373ffffffffffffffffffffffffffffffffffffffff167f437e0fd3c479cfd078ca3a43377ab78a4d58c3f7eaeee24bb76057f9f710764482846001546040516105cb93929190610e54565b60405180910390a25050565b6105df6108fe565b6000808381526020019081526020016000206040518060800160405290816000820160009054906101000a900473ffffffffffffffffffffffffffffffffffffffff1673ffffffffffffffffffffffffffffffffffffffff1673ffffffffffffffffffffffffffffffffffffffff1681526020016001820154815260200160028201805461066c90610ec8565b80601f016020809104026020016040519081016040528092919081815260200182805461069890610ec8565b80156106e55780601f106106ba576101008083540402835291602001916106e5565b820191906000526020600020905b8154815290600101906020018083116106c857829003601f168201915b505050505081526020016003820180546106fe90610ec8565b80601f016020809104026020016040519081016040528092919081815260200182805461072a90610ec8565b80156107775780601f1061074c57610100808354040283529160200191610777565b820191906000526020600020905b81548152906001019060200180831161075a57829003601f168201915b5050505050815250509050919050565b6000600154905090565b606060008083815260200190815260200160002060030180546107b390610ec8565b80601f01602080910402602001604051908101604052809291908181526020018280546107df90610ec8565b801561082c5780601f106108015761010080835404028352916020019161082c565b820191906000526020600020905b81548152906001019060200180831161080f57829003601f168201915b50505050509050919050565b50805461084490610ec8565b6000825580601f106108565750610875565b601f016020900490600052602060002090810190610874919061093c565b5b50565b82805461088490610ec8565b90600052602060002090601f0160209004810192826108a657600085556108ed565b82601f106108bf57805160ff19168380011785556108ed565b828001600101855582156108ed579182015b828111156108ec5782518255916020019190600101906108d1565b5b5090506108fa919061093c565b5090565b6040518060800160405280600073ffffffffffffffffffffffffffffffffffffffff1681526020016000815260200160608152602001606081525090565b5b8082111561095557600081600090555060010161093d565b5090565b6000604051905090565b600080fd5b600080fd5b6000819050919050565b6109808161096d565b811461098b57600080fd5b50565b60008135905061099d81610977565b92915050565b6000602082840312156109b9576109b8610963565b5b60006109c78482850161098e565b91505092915050565b600073ffffffffffffffffffffffffffffffffffffffff82169050919050565b60006109fb826109d0565b9050919050565b610a0b816109f0565b82525050565b6000602082019050610a266000830184610a02565b92915050565b610a358161096d565b82525050565b6000602082019050610a506000830184610a2c565b92915050565b600080fd5b600080fd5b6000601f19601f8301169050919050565b7f4e487b7100000000000000000000000000000000000000000000000000000000600052604160045260246000fd5b610aa982610a60565b810181811067ffffffffffffffff82111715610ac857610ac7610a71565b5b80604052505050565b6000610adb610959565b9050610ae78282610aa0565b919050565b600067ffffffffffffffff821115610b0757610b06610a71565b5b610b1082610a60565b9050602081019050919050565b82818337600083830152505050565b6000610b3f610b3a84610aec565b610ad1565b905082815260208101848484011115610b5b57610b5a610a5b565b5b610b66848285610b1d565b509392505050565b600082601f830112610b8357610b82610a56565b5b8135610b93848260208601610b2c565b91505092915050565b60008060408385031215610bb357610bb2610963565b5b600083013567ffffffffffffffff811115610bd157610bd0610968565b5b610bdd85828601610b6e565b925050602083013567ffffffffffffffff811115610bfe57610bfd610968565b5b610c0a85828601610b6e565b9150509250929050565b610c1d816109f0565b82525050565b610c2c8161096d565b82525050565b600081519050919050565b600082825260208201905092915050565b60005b83811015610c6c578082015181840152602081019050610c51565b83811115610c7b576000848401525b50505050565b6000610c8c82610c32565b610c968185610c3d565b9350610ca6818560208601610c4e565b610caf81610a60565b840191505092915050565b6000608083016000830151610cd26000860182610c14565b506020830151610ce56020860182610c23565b5060408301518482036040860152610cfd8282610c81565b91505060608301518482036060860152610d178282610c81565b9150508091505092915050565b60006020820190508181036000830152610d3e8184610cba565b905092915050565b600082825260208201905092915050565b6000610d6282610c32565b610d6c8185610d46565b9350610d7c818560208601610c4e565b610d8581610a60565b840191505092915050565b60006020820190508181036000830152610daa8184610d57565b905092915050565b7f4e487b7100000000000000000000000000000000000000000000000000000000600052601160045260246000fd5b6000610dec8261096d565b91506000821415610e0057610dff610db2565b5b600182039050919050565b6000610e168261096d565b91507fffffffffffffffffffffffffffffffffffffffffffffffffffffffffffffffff821415610e4957610e48610db2565b5b600182019050919050565b60006060820190508181036000830152610e6e8186610d57565b90508181036020830152610e828185610d57565b9050610e916040830184610a2c565b949350505050565b7f4e487b7100000000000000000000000000000000000000000000000000000000600052602260045260246000fd5b60006002820490506001821680610ee057607f821691505b60208210811415610ef457610ef3610e99565b5b5091905056fea2646970667358221220debc10c580bf722980b0a0771685cadc3e770c22b8f29a1d1aac95b9b197e68964736f6c63430008080033",
  "devdoc": {
    "author": "Hari Krishna",
    "details": "This contract is a social media application for web3 users",
    "kind": "dev",
    "methods": {},
    "title": "Social Media Contract",
    "version": 1
  },
  "userdoc": {
    "kind": "user",
    "methods": {},
    "version": 1
  },
  "storageLayout": {
    "storage": [
      {
        "astId": 20,
        "contract": "contracts/SocialMedia.sol:SocialMedia",
        "label": "posts",
        "offset": 0,
        "slot": "0",
        "type": "t_mapping(t_uint256,t_struct(Post)15_storage)"
      },
      {
        "astId": 22,
        "contract": "contracts/SocialMedia.sol:SocialMedia",
        "label": "postUid",
        "offset": 0,
        "slot": "1",
        "type": "t_uint256"
      },
      {
        "astId": 24,
        "contract": "contracts/SocialMedia.sol:SocialMedia",
        "label": "numberofPost",
        "offset": 0,
        "slot": "2",
        "type": "t_uint256"
      }
    ],
    "types": {
      "t_address": {
        "encoding": "inplace",
        "label": "address",
        "numberOfBytes": "20"
      },
      "t_mapping(t_uint256,t_struct(Post)15_storage)": {
        "encoding": "mapping",
        "key": "t_uint256",
        "label": "mapping(uint256 => struct SocialMedia.Post)",
        "numberOfBytes": "32",
        "value": "t_struct(Post)15_storage"
      },
      "t_string_storage": {
        "encoding": "bytes",
        "label": "string",
        "numberOfBytes": "32"
      },
      "t_struct(Post)15_storage": {
        "encoding": "inplace",
        "label": "struct SocialMedia.Post",
        "members": [
          {
            "astId": 8,
            "contract": "contracts/SocialMedia.sol:SocialMedia",
            "label": "User",
            "offset": 0,
            "slot": "0",
            "type": "t_address"
          },
          {
            "astId": 10,
            "contract": "contracts/SocialMedia.sol:SocialMedia",
            "label": "postUid",
            "offset": 0,
            "slot": "1",
            "type": "t_uint256"
          },
          {
            "astId": 12,
            "contract": "contracts/SocialMedia.sol:SocialMedia",
            "label": "text",
            "offset": 0,
            "slot": "2",
            "type": "t_string_storage"
          },
          {
            "astId": 14,
            "contract": "contracts/SocialMedia.sol:SocialMedia",
            "label": "ipfsHash",
            "offset": 0,
            "slot": "3",
            "type": "t_string_storage"
          }
        ],
        "numberOfBytes": "128"
      },
      "t_uint256": {
        "encoding": "inplace",
        "label": "uint256",
        "numberOfBytes": "32"
      }
    }
  }
}